:100000000C94EE000C940F010C940F010C940F0152
:100010000C940F010C940F010C940F010C940F0120
:100020000C940F010C940F010C940F010C940F0110
:100030000C940F010C940F010C940F010C940F0100
:100040000C940F010C940F010C940F010C940F01F0
:100050000C940F010C940F010C940F010C940F01E0
:100060000C940F010C940F010C940F010C940F01D0
:100070000C940F010C940F010C940F010C940F01C0
:100080000C940F010C940F010C940F010C940F01B0
:100090000C940F010C940F010C940F010C940F01A0
:1000A0000C940F010C940F010C940F010C940F0190
:1000B0000C940F010C940F010C940F010C940F0180
:1000C0000C940F010C940F010C940F010C940F0170
:1000D0000C940F010C940F010C940F010C940F0160
:1000E0000C940F010C940F010C940F010C940F0150
:1000F0000C940F010C940F010C940F010C940F0140
:100100000C940F010C940F010C940F010C940F012F
:100110000C940F010C940F010C940F010C940F011F
:100120000C940F010C940F010C940F010C940F010F
:100130000C940F010C940F010C940F010C940F01FF
:100140000C940F010C940F010C940F010C940F01EF
:100150000C940F010C940F010C940F010C940F01DF
:100160000C940F010C940F010C940F010C940F01CF
:100170000C940F010C940F010C940F010C940F01BF
:100180000C940F010C940F010C940F010C940F01AF
:100190000C940F010C940F010C940F010C940F019F
:1001A0000C940F010C940F010C940F010C940F018F
:1001B0000C940F010C940F010C940F010C940F017F
:1001C0000C940F010C940F010C9411010C94170165
:1001D0000C9442010C941B010C94130111241FBEBA
:1001E000CFEFCDBFDFE3DEBF00E00CBF12E2A0E047
:1001F000B0E2E2EAFCE000E00BBF02C007900D9223
:10020000AC32B107D9F723E2ACE2B2E201C01D92F1
:10021000A235B207E1F70E9401060C944F060C9438
:10022000000080E008950E94000680E008950E948A
:10023000FA0580E00895FF920F931F93CF93DF9309
:10024000D82FC92F0E94FE0500E016E0FF24F3948A
:10025000F801F5828D2F9C2F0E94FC05F801F68293
:100260008D2F9C2F0E94FF054D2F5C2F60E170E0C9
:1002700082E70E94B30180E0DF91CF911F910F913F
:10028000FF90089581E008959C01FA01DB0150E0A0
:1002900040E0421753071CF090E080E008958C91F5
:1002A00011969C91119760ED690F6A3078F4608324
:1002B00090ED980F9A30D0F48295807F9081892BB1
:1002C00080834F5F5F4F31961296E3CF6FEB690FDC
:1002D000663018F497539083EBCF6FE9690F66305F
:1002E00018F081E090E008959755F5CF9FEB980FB7
:1002F000963040F48753990B64E0880F991F6A95F4
:10030000E1F7DCCF9FE9980F963058F78755990BA6
:10031000F3CF20912C2230912D2220313105CCF4C5
:1003200060347105B0F495E0929FF001939FF00D59
:100330001124E25DFD4D8083618372834383548386
:100340002F5F3F4F20932C2230932D2290E080E0AE
:10035000089581E090E0089542E451E070E060E0AB
:1003600086E70C948901EF92FF920F931F93CF932E
:10037000DF938B017A010E94B502E701F12CE12C99
:10038000E016F1064CF08AE0DF91CF911F910F91BA
:10039000FF90EF900C94B502E991E295EF70F0E0D8
:1003A000E55FFD4D80810E94B502FE013197E0813D
:1003B000EF70F0E0E55FFD4D80810E94B5028FEFA8
:1003C000E81AF80ADDCF8F929F92AF92BF92CF9238
:1003D000DF92EF92FF920F931F93CF93DF93CDB7EE
:1003E000DEB7C15CD109CDBFDEBF0E94AE02409135
:1003F0002C2250912D222EE232E210E000E0041770
:1004000015070CF45EC04017510709F449C09E015E
:100410002F5F3F4F7901D12CC12C490125E0209F4E
:10042000C001219F900D1124DC01A15DBD4D5D0136
:10043000D5018D919C91880F991FC816D90608F493
:100440004BC00E94AE028A3011F08D3049F525E094
:10045000209FC001219F900D11248C01025D1D4D34
:10046000AE014F575F4FB401F801818192810E9424
:100470004401892BA9F4D8011396ED91FC91CE018A
:100480008F579F4F1995CF53DF4F8883C15CD04062
:10049000AE014F535F4F61E070E08AE70E94B30105
:1004A000CF53DF4FCDBFDEBFDF91CF911F910F91B3
:1004B000FF90EF90DF90CF90BF90AF909F908F9084
:1004C00008952B5F3F4FF90135979081981709F4F4
:1004D0009ECF0F5F1F4F93CF0E94AE028A3001F371
:1004E0008D30F1F2F70181937F01FFEFCF1ADF0A20
:1004F0009FCFE0E4F6E088E0818384E08283E0EA55
:10050000F8E083E085838BE08683178284818061B5
:1005100084838481886084830895CF93DF930F92CE
:100520000F92CDB7DEB7FC0169837A8390E080E05B
:1005300029813A812817390711F480E008C02091F9
:10054000A10827FF09C08091A008808381E00F9057
:100550000F90DF91CF9108950196EACF8091A10885
:1005600087FFFCCF8091A00808959091A10895FF86
:10057000FCCF8093A0080895FC01608371834283BF
:1005800014861386168615860895FC0162830895E5
:10059000FC01958526859F5F937081E0921301C0D1
:1005A00080E008951F93CF93DF93EC01162F0E94F4
:1005B000C802882379F09D85FE01E90FF11D17839C
:1005C0009F5F93709D87E881F98193819C7F2A8149
:1005D000922B9383DF91CF911F910895FC01238586
:1005E000948581E0291301C080E00895FC01A48571
:1005F000A80FB92FB11D13968C9194859F5F9370AE
:1006000094870895FC0183858F5F83702485A08182
:10061000B1819C91821749F0A385AE0FBF2FB11D08
:1006200013969C93838781E0089580E00895CF938B
:10063000DF93FC0186859585A081B181981309C05F
:1006400013968C9113978C7F13968C93DF91CF9197
:100650000895C685CE0FDF2FD11D8F818C9386859F
:100660008F5F83708687F2CFFC01CB01248170FFFE
:1006700004C021602483808308952E7FFBCFFC017A
:10068000848180FF04C0808190E091600895808122
:1006900090E0089510925200109255008091500001
:1006A0008860809350008091510083FFFCCF88EDDB
:1006B00084BF83E08093400088E0809350000895D9
:1006C0008F929F92AF92BF92FF920F931F93CF93FF
:1006D000DF9300D00F92CDB7DEB780917E2290914C
:1006E0007F22E0E9F2E2AF01DC012C91DA012C93E8
:1006F000DC0111962C91DA0111962C93DC011296F3
:100700002C91DA0112962C93DC0113962C91DA01CC
:1007100013962C9304964C5F5F4FB2E2403A5B070E
:1007200019F794E0892E912CA12CB12CBE016B5F9E
:100730007F4FAF01445F5F4F9E012F5F3F4FDA0154
:100740001D91AD01D9011D939D016A177B07B9F772
:10075000950184010370112722273327012B022BD7
:10076000032B51F529814C810A8110E0055F1E4D54
:10077000D801FC900B8110E0055F1E4DD8013C9123
:100780003A8350E0455F5E4DDA013C913B8330E0B7
:10079000255F3E4DD9012C912C839501840182E087
:1007A00036952795179507958A95D1F70050104EE5
:1007B000D8012C912F252983208139812327208B53
:1007C00021813A812327218B22813B812327228B80
:1007D00023813C812327238BBFEF8B1A9B0AAB0A13
:1007E000BB0A34962CE282169104A104B10409F0EC
:1007F000A0CF2496CDBFDEBFDF91CF911F910F9187
:10080000FF90BF90AF909F908F9008951F93CF93CC
:10081000DF93209140233091412340E1849FC00128
:100820001124B901605F7F4FDC01A057BD4DF90174
:1008300040E051911D91EF012197512758834F5F5F
:100840004430B9F72C5F3F4F04962617370761F7FE
:10085000DF91CF911F910895809140239091412382
:10086000AC014C5F5F4FDC0124E0EC91F0E0E55F10
:10087000FE4D30813C93215014962111F6CF019604
:100880008417950781F70895E0914023F091412363
:1008900081819581918391859583958591878587C0
:1008A00082819285928382878681968596838687C8
:1008B0008381978593839385978797819387878390
:1008C0000895982F881F8827881F2BE1829F802DED
:1008D0001124990F892708958091402390914123F5
:1008E000AC014C5F5F4FDC0124E0EC91F0E0E55F90
:1008F000FF4D30813C93215014962111F6CF019683
:100900008417950781F70895E0914023F0914123E2
:10091000858591859587958191879181958381833F
:100920008281928592838287868196859683868747
:10093000838197819383938597839785938787870F
:1009400008959F92AF92BF92CF92DF92EF92FF9263
:100950000F931F93CF93DF9380E00E940604CC2473
:10096000C3940E942C040E944404C0914023D0915F
:1009700041237E0180E1E80EF11CA880D9808A2DF8
:100980008D250A811B81902E9126B92CB8260E94B4
:1009900061048A258B2588838D2D80270E94610420
:1009A000D826DB24D982892D0E94610408270B25D3
:1009B0000A838A2D81270E94610418271B251B8327
:1009C0002496CE15DF05C9F68C2D0E940604C3942B
:1009D0008AE0C812C6CF0E942C040E9444048AE018
:1009E000DF91CF911F910F91FF90EF90DF90CF900B
:1009F000BF90AF909F900C940604FB01DC01CB01EB
:100A0000409621912D93E817F907D9F7089580931F
:100A10007E2290937F220C946003BC01809340233C
:100A20007093412380E892E20E94FD040C94A1049B
:100A30000F931F93CF93DF938B01D42FC52FBC014E
:100A4000842F952F0E94FD04D0934023C09341230F
:100A500000937E2210937F220E946003DF91CF914A
:100A60001F910F910C94A1042F923F924F925F928D
:100A70006F927F928F929F92AF92BF92CF92DF92AE
:100A8000EF92FF920F931F93CF93DF9300D000D08C
:100A9000CDB7DEB76A8379836A01BC01CA010E94BF
:100AA000FD04C0924023D09241232A8120937E22CC
:100AB000898180937F220E9460038AE00E9406045D
:100AC00099E09983F6017096EB83FC830E9484047D
:100AD0000E946C0489810E9406047601F70130802F
:100AE000418052802380832D0E9461048D830E9467
:100AF00061048E830E946104A82E842D0E946104EB
:100B0000182F0E946104982E0E946104B82E852D32
:100B10000E946104782E0E946104882E0E94610464
:100B2000082F822D0E9461048A830E946104682E2E
:100B30000E946104982F8D81FE818F278A2581274D
:100B40008B25882580278927842585258225F701FF
:100B500080838A2D812789258B25872580278625D7
:100B600089278325852582258183FE81FA25FB251A
:100B70007F26872480262A8182268926832484242E
:100B80002824F70122828D818A2589258B258027BB
:100B90008227862589273826432454245382F4E06B
:100BA000EF0EF11C8B819C818E159F0509F096CF6D
:100BB000998191509983911189CF0E9484040E9458
:100BC0006C0480E02696CDBFDEBFDF91CF911F91F0
:100BD0000F91FF90EF90DF90CF90BF90AF909F90DC
:100BE0008F907F906F905F904F903F902F900C94DC
:100BF000060408950C9407050C940D0508950895B6
:100C00000895CDB7DEB76097CDBFDEBF80E1EBE1E1
:100C1000F2E2DE01119601900D928A95E1F70E94B1
:100C20004A030E94790281E0809301060E94F9053F
:100C3000CE0101960E94FA0588E60E94B50285E67B
:100C40000E94B5028CE60E94B5028CE60E94B502B5
:100C50008FE60E94B5028AE00E94B5020E94AC01B4
:100C600047E151E060E170E08BE60E9489014BE1D1
:100C700051E060E170E080E70E94890141E151E0CC
:100C800070E060E088E70E94890143E151E062E1A1
:100C900070E08DE60E9489010E94E301FDCFF89487
:020CA000FFCF84
:100CA2008D01020408102040801B3652096AD5309B
:100CB20036A538BF40A39E81F3D7FB7CE339829BE4
:100CC2002FFF87348E4344C4DEE9CB547B9432A693
:100CD200C2233DEE4C950B42FAC34E082EA1662864
:100CE200D924B2765BA2496D8BD12572F8F664865F
:100CF200689816D4A45CCC5D65B6926C704850FDC1
:100D0200EDB9DA5E154657A78D9D8490D8AB008C5D
:100D1200BCD30AF7E45805B8B34506D02C1E8FCAD7
:100D22003F0F02C1AFBD0301138A6B3A9111414FCC
:100D320067DCEA97F2CFCEF0B4E67396AC7422E7A2
:100D4200AD3585E2F937E81C75DF6E47F11A711D82
:100D520029C5896FB7620EAA18BE1BFC563E4BC648
:100D6200D279209ADBC0FE78CD5AF41FDDA83388F1
:100D720007C731B11210592780EC5F60517FA91962
:100D8200B54A0D2DE57A9F93C99CEFA0E03B4DAE8D
:100D92002AF5B0C8EBBB3C83539961172B047EBA8A
:100DA20077D626E169146355210C7D637C777BF24B
:100DB2006B6FC53001672BFED7AB76CA82C97DFA4D
:100DC2005947F0ADD4A2AF9CA472C0B7FD932636AA
:100DD2003FF7CC34A5E5F171D8311504C723C31808
:100DE20096059A071280E2EB27B27509832C1A1B2B
:100DF2006E5AA0523BD6B329E32F8453D100ED2083
:100E0200FCB15B6ACBBE394A4C58CFD0EFAAFB4348
:100E12004D338545F9027F503C9FA851A3408F92E4
:100E22009D38F5BCB6DA2110FFF3D2CD0C13EC5F7E
:100E3200974417C4A77E3D645D197360814FDC221D
:100E42002A908846EEB814DE5E0BDBE0323A0A499D
:100E520006245CC2D3AC629195E479E7C8376D8D04
:100E6200D54EA96C56F4EA657AAE08BA78252E1CDE
:100E7200A6B4C6E8DD741F4BBD8B8A703EB56648CA
:100E820003F60E613557B986C11D9EE1F8981169C6
:100E9200D98E949B1E87E9CE5528DF8CA1890DBF80
:100EA200E6426841992D0FB054BB163031323334CB
:100EB20035363738394142434445462B7E1516288C
:0C0EC200AED2A6ABF7158809CF4F3C005C
:00000001FF
