:100000000C94E6000C9407010C9407010C94070172
:100010000C9407010C9407010C9407010C94070140
:100020000C9407010C9407010C9407010C94070130
:100030000C9407010C9407010C9407010C94070120
:100040000C9407010C9407010C9407010C94070110
:100050000C9407010C9407010C9407010C94070100
:100060000C9407010C9407010C9407010C940701F0
:100070000C9407010C9407010C9407010C940701E0
:100080000C9407010C9407010C9407010C940701D0
:100090000C9407010C9407010C9407010C940701C0
:1000A0000C9407010C9407010C9407010C940701B0
:1000B0000C9407010C9407010C9407010C940701A0
:1000C0000C9407010C9407010C9407010C94070190
:1000D0000C9407010C9407010C9407010C94070180
:1000E0000C9407010C9407010C9407010C94070170
:1000F0000C9407010C9407010C9407010C94070160
:100100000C9407010C9407010C9407010C9407014F
:100110000C9407010C9407010C9407010C9407013F
:100120000C9407010C9407010C9407010C9407012F
:100130000C9407010C9407010C9407010C9407011F
:100140000C9407010C9407010C9407010C9407010F
:100150000C9407010C9407010C9407010C940701FF
:100160000C9407010C9407010C9407010C940701EF
:100170000C9407010C9407010C9407010C940701DF
:100180000C9407010C9407010C9407010C940701CF
:100190000C9407010C9407010C9407010C940701BF
:1001A0000C9407010C9407010C9407010C940701AF
:1001B0000C9407010C9407010C9407010C9407019F
:1001C0000C9407010C9407010C94610111241FBECB
:1001D000CFEFCDBFDFE3DEBF00E00CBF11E2A0E058
:1001E000B0E2ECE6F9E000E00BBF02C007900D9230
:1001F000A033B107D9F722E2A0E3B1E201C01D921A
:10020000A235B207E1F70E9470030C94B4040C9479
:100210000000CF93DF930F920F92CDB7DEB7198214
:100220001A8289819A818F3F9F4028F00F900F900A
:10023000DF91CF91089589819A81019689839A836C
:10024000F0CFCF93DF93EC0189910E94C5028881A2
:100250008111FACFDF91CF910895AF92BF92CF92E3
:10026000DF92EF92FF920F931F93CF93DF93EC01F6
:100270008B017C01B12CA12CA016B106ECF4670116
:100280000E94BE02F70180838823D1F3FFEFEF1AAB
:10029000FF0A8A3069F4F6011082DF91CF911F9135
:1002A0000F91FF90EF90DF90CF90BF90AF900895A7
:1002B000FFEFAF1ABF0AE0CFC00FD11F21971882FE
:1002C000ECCF80E008959C01FA01DB0150E040E0B2
:1002D000421753071CF090E080E008958C9111962E
:1002E0009C91119760ED690F6A3078F4608390ED0E
:1002F000980F9A30D0F48295807F9081892B8083EB
:100300004F5F5F4F31961296E3CF6FEB690F663008
:1003100018F497539083EBCF6FE9690F663018F0AC
:1003200081E090E008959755F5CF9FEB980F9630B8
:1003300040F48753990B64E0880F991F6A95E1F7A1
:10034000DCCF9FE9980F963058F78755990BF3CF7C
:10035000209130213091312120313105CCF46034AD
:100360007105B0F495E0929FF001939FF00D112478
:10037000EE5CFE4D808361837283438354832F5FE1
:100380003F4F209330213093312190E080E0089559
:1003900081E090E0089541E651E070E060E086E79A
:1003A0000C94A8018F929F92AF92BF92CF92DF924E
:1003B000EF92FF920F931F93CF93DF93CDB7DEB7EA
:1003C000C05CD109CDBFDEBF0E94BE02409130218A
:1003D0005091312122E331E210E000E004171507CB
:1003E0000CF44FC040175107D9F19E012F5F3F4FCA
:1003F0007901D12CC12C490125E0209FC001219F0A
:10040000900D1124DC01AD5CBE4D5D01D5018D91D7
:100410009C91880F991FC816D906F0F10E94BE0260
:100420008A3011F08D30E1F425E0209FC001219F3A
:10043000900D11248C010E5C1E4DAE014F575F4F85
:10044000B401F801818192810E946301892B41F4FA
:10045000D8011396ED91FC91CE018F579F4F1995BE
:10046000C054DF4FCDBFDEBFDF91CF911F910F9101
:10047000FF90EF90DF90CF90BF90AF909F908F90C4
:1004800008952B5F3F4FF90135979081981709F434
:10049000ACCF0F5F1F4FA2CF0E94BE028A3001F384
:1004A0008D30F1F2F70181937F01FFEFCF1ADF0A60
:1004B000ADCFEF92FF920F931F93CF93DF938B01FA
:1004C0007A010E94C502E701F12CE12CE016F10649
:1004D0004CF08AE0DF91CF911F910F91FF90EF9048
:1004E0000C94C502E991E295EF70F0E0EC5FFF4DEE
:1004F00080810E94C502FE013197E081EF70F0E03B
:10050000EC5FFF4D80810E94C5028FEFE81AF80A68
:10051000DDCFE0E4F6E088E0818384E08283E0EAF6
:10052000F8E083E085838BE0868317828481806195
:1005300084838481886084830895CF93DF930F92AE
:100540000F92CDB7DEB7FC0169837A8390E080E03B
:1005500029813A812817390711F480E008C02091D9
:10056000A10827FF09C08091A008808381E00F9037
:100570000F90DF91CF9108950196EACF8091A10865
:1005800087FFFCCF8091A00808959091A10895FF66
:10059000FCCF8093A0080895FC016083718342839F
:1005A00014861386168615860895FC0162830895C5
:1005B000FC01958526859F5F937081E0921301C0B1
:1005C00080E008951F93CF93DF93EC01162F0E94D4
:1005D000D802882379F09D85FE01E90FF11D17836C
:1005E0009F5F93709D87E881F98193819C7F2A8129
:1005F000922B9383DF91CF911F910895FC01238566
:10060000948581E0291301C080E00895FC01A48550
:10061000A80FB92FB11D13968C9194859F5F93708D
:1006200094870895FC0183858F5F83702485A08162
:10063000B1819C91821749F0A385AE0FBF2FB11DE8
:1006400013969C93838781E0089580E00895CF936B
:10065000DF93FC0186859585A081B181981309C03F
:1006600013968C9113978C7F13968C93DF91CF9177
:100670000895C685CE0FDF2FD11D8F818C9386857F
:100680008F5F83708687F2CFFC01CB01248170FFDE
:1006900004C021602483808308952E7FFBCFFC015A
:1006A000848180FF04C0808190E091600895808102
:1006B00090E00895109252001092550080915000E1
:1006C0008860809350008091510083FFFCCF88EDBB
:1006D00084BF83E08093400088E0809350000895B9
:1006E000CDB7DEB7A897CDBFDEBF0E945A030E94E8
:1006F000890211E01093010686E0EAE2F1E2DE01F0
:10070000919601900D928A95E1F784E190E20E9422
:10071000210187E390E20E9421010E94090184E502
:1007200090E20E9421010E94090181E790E20E946B
:1007300021010E9409018EE890E20E9421010E949D
:1007400009018BEA90E20E9421018EEA90E20E9468
:100750002101109306068DED90E20E94210160E2D6
:1007600070E0CE0101960E942D0110930506FE0156
:100770003196DE0191968C2F895D2D9191912913EF
:100780001AC08A13FACF80E191E20E94210112C0BF
:100790008FA198A501968FA398A78FA198A58217DE
:1007A0009307B4F30E9409010E94090181E091E2DC
:1007B0000E942101FFCF0E9442049C011FA218A6A3
:1007C000ECCFCF92DF92EF92FF92CF93DF93CDB732
:1007D000DEB72A97CDBFDEBF89879A87A985BA85FC
:1007E0002D913D914D915C9129833A834B835C839C
:1007F000232B242B252B41F424E239ED4BE557E044
:1008000029833A834B835C8369817A818B819C81C4
:100810002DE133EF41E050E00E94510469017A017B
:10082000A7EAB1E49B01AC010E94700469837A835A
:100830008B839C83ACEEB4EFA70196010E947E04EB
:100840009B01AC0189819A81AB81BC81820F931F8E
:10085000A41FB51FB7FF03C00197A109B048E985E0
:10086000FA8580839183A283B3839F772A96CDBF35
:10087000DEBFDF91CF91FF90EF90DF90CF90089592
:100880000C94E10380E090E20C94E103B0E0A0E07E
:100890008093002090930120A0930220B093032026
:1008A0000895052E97FB1EF400940E94680457FDDE
:1008B00007D00E94830407FC03D04EF40C94680414
:1008C00050954095309521953F4F4F4F5F4F08957C
:1008D00090958095709561957F4F8F4F9F4F0895AC
:1008E0000E94A504A59F900DB49F900DA49F800D1C
:1008F000911D11240895B7FF0C9470040E94700498
:10090000821B930B0895A1E21A2EAA1BBB1BFD01AB
:100910000DC0AA1FBB1FEE1FFF1FA217B307E407DE
:10092000F50720F0A21BB30BE40BF50B661F771F36
:10093000881F991F1A9469F7609570958095909516
:100940009B01AC01BD01CF010895A29FB001B39FEF
:10095000C001A39F700D811D1124911DB29F700DC8
:0C096000811D1124911D0895F894FFCF13
:10096C0001000000303132333435363738394142EA
:10097C00434445462A2A2A2A2A536166652D6F2D3F
:10098C006D61746963203330303020426F6F74694D
:10099C006E672E2E2E0A00416C69676E696E672099
:1009AC00626974732E2E2E2E2E2E2E2E5B444F4EDD
:1009BC00455D0A00436865636B696E672043657328
:1009CC0069756D20524E472E2E5B444F4E455D0A85
:1009DC00004D6173717565726164696E6720666C38
:1009EC006173682E2E2E5B444F4E455D0A004465A4
:1009FC006372797074696E6720646174616261738B
:100A0C00652E2E5B444F4E455D0A000A0A00574185
:100A1C00524E494E473A20554E415554484F524933
:100A2C005A4544204143434553532057494C4C208D
:100A3C0042452050554E49534845440A00506C6578
:100A4C0061736520656E7465722070617373776F66
:100A5C00726420746F20636F6E74696E75653A20D2
:100A6C000050415353574F5244204641494C0A00C1
:100A7C00416363657373206772616E7465642C20C7
:100A8C0057656C636F6D65210A00683070783300B0
:00000001FF
