:100000000C94EC000C940D010C940D010C940D015A
:100010000C940D010C940D010C940D010C940D0128
:100020000C940D010C940D010C940D010C940D0118
:100030000C940D010C940D010C940D010C940D0108
:100040000C940D010C940D010C940D010C940D01F8
:100050000C940D010C940D010C940D010C940D01E8
:100060000C940D010C940D010C940D010C940D01D8
:100070000C940D010C940D010C940D010C940D01C8
:100080000C940D010C940D010C940D010C940D01B8
:100090000C940D010C940D010C940D010C940D01A8
:1000A0000C940D010C940D010C940D010C940D0198
:1000B0000C940D010C940D010C940D010C940D0188
:1000C0000C940D010C940D010C940D010C940D0178
:1000D0000C940D010C940D010C940D010C940D0168
:1000E0000C940D010C940D010C940D010C940D0158
:1000F0000C940D010C940D010C940D010C940D0148
:100100000C940D010C940D010C940D010C940D0137
:100110000C940D010C940D010C940D010C940D0127
:100120000C940D010C940D010C940D010C940D0117
:100130000C940D010C940D010C940D010C940D0107
:100140000C940D010C940D010C940D010C940D01F7
:100150000C940D010C940D010C940D010C940D01E7
:100160000C940D010C940D010C940D010C940D01D7
:100170000C940D010C940D010C940D010C940D01C7
:100180000C940D010C940D010C940D010C940D01B7
:100190000C940D010C940D010C940D010C940D01A7
:1001A0000C940D010C940D010C940D010C940D0197
:1001B0000C940D010C940D010C940D010C940D0187
:1001C0000C940D010C940D010C9420010C940F0162
:1001D0000C941E010C94110111241FBECFEFCDBF52
:1001E000DFE3DEBF00E00CBF10E2A0E0B0E2E2EC33
:1001F000F6E000E00BBF02C007900D92A031B107FE
:10020000D9F720E2A0E1B0E201C01D92A236B20708
:10021000E1F70E943E030C945F030C94000080E021
:100220000895AC01E0E0F6E081E08583868360E13B
:1002300070E082E70E94910180E0089580E00895D7
:1002400081E008959C01FA01DB0150E040E0421793
:1002500053071CF090E080E008958C9111969C91DA
:10026000119760ED690F6A3078F4608390ED980F14
:100270009A30D0F48295807F9081892B80834F5F64
:100280005F4F31961296E3CF6FEB690F663018F42B
:1002900097539083EBCF6FE9690F663018F081E0D8
:1002A00090E008959755F5CF9FEB980F963040F466
:1002B0008753990B64E0880F991F6A95E1F7DCCFAB
:1002C0009FE9980F963058F78755990BF3CF2091F7
:1002D00010203091112020313105CCF460347105AB
:1002E000B0F495E0929FF001939FF00D1124EE5E23
:1002F000FF4D808361837283438354832F5F3F4F1D
:10030000209310203093112090E080E0089581E048
:1003100090E0089540E251E070E060E086E70C94E0
:100320006701EF92FF920F931F93CF93DF938B019F
:100330007A010E949302E701F12CE12CE016F1060C
:100340004CF08AE0DF91CF911F910F91FF90EF90D9
:100350000C949302E991E295EF70F0E0E050F04EDA
:1003600080810E949302FE013197E081EF70F0E0FE
:10037000E050F04E80810E9493028FEFE81AF80A55
:10038000DDCF8F929F92AF92BF92CF92DF92EF928A
:10039000FF920F931F93CF93DF93CDB7DEB7C15C6E
:1003A000D109CDBFDEBF0E948C0240911020509138
:1003B000112022E130E210E000E0041715070CF4F0
:1003C0005EC04017510709F449C09E012F5F3F4F9F
:1003D0007901D12CC12C490125E0209FC001219F2A
:1003E000900D1124DC01AD5EBF4D5D01D5018D91F5
:1003F0009C91880F991FC816D90608F44BC00E941B
:100400008C028A3011F08D3049F525E0209FC00123
:10041000219F900D11248C010E5E1F4DAE014F5790
:100420005F4FB401F801818192810E942201892BE2
:10043000A9F4D8011396ED91FC91CE018F579F4FEF
:100440001995CF53DF4F8883C15CD040AE014F5325
:100450005F4F61E070E08AE70E949101CF53DF4F68
:10046000CDBFDEBFDF91CF911F910F91FF90EF9035
:10047000DF90CF90BF90AF909F908F9008952B5FAB
:100480003F4FF90135979081981709F49ECF0F5F80
:100490001F4F93CF0E948C028A3001F38D30F1F20E
:1004A000F70181937F01FFEFCF1ADF0A9FCFE0E4CE
:1004B000F6E088E0818384E08283E0EAF8E083E08C
:1004C00085838BE086831782848180618483848125
:1004D000886084830895CF93DF930F920F92CDB7F6
:1004E000DEB7FC0169837A8390E080E029813A815C
:1004F0002817390711F480E008C02091A10827FFD0
:1005000009C08091A008808381E00F900F90DF9157
:10051000CF9108950196EACF8091A10887FFFCCF83
:100520008091A00808959091A10895FFFCCF809339
:10053000A0080895FC0160837183428314861386AA
:10054000168615860895FC0162830895FC01958541
:1005500026859F5F937081E0921301C080E008952B
:100560001F93CF93DF93EC01162F0E94A6028823DE
:1005700079F09D85FE01E90FF11D17839F5F937050
:100580009D87E881F98193819C7F2A81922B9383B7
:10059000DF91CF911F910895FC012385948581E01F
:1005A000291301C080E00895FC01A485A80FB92F8C
:1005B000B11D13968C9194859F5F937094870895D5
:1005C000FC0183858F5F83702485A081B1819C911C
:1005D000821749F0A385AE0FBF2FB11D13969C93D0
:1005E000838781E0089580E00895CF93DF93FC0135
:1005F00086859585A081B181981309C013968C9149
:1006000013978C7F13968C93DF91CF910895C685B5
:10061000CE0FDF2FD11D8F818C9386858F5F8370E6
:100620008687F2CFFC01CB01248170FF04C02160DA
:100630002483808308952E7FFBCFFC01848180FF7B
:1006400004C0808190E091600895808190E00895D9
:100650001092520010925500809150008860809353
:1006600050008091510083FFFCCF88ED84BF83E070
:100670008093400088E08093500008950E942803F2
:100680000E94570281E0809301060E948A014FE098
:1006900051E060E170E08BE60E94670141E151E0CA
:1006A00060E170E080E70E9467014EE151E070E098
:1006B00060E088E70E9467010E94C101FDCFF894C5
:0206C000FFCF6A
:1006C2003031323334353637383941424344454686
:00000001FF
